{
  "contractName": "CrowdFunding",
  "abi": [
    {
      "inputs": [],
      "stateMutability": "nonpayable",
      "type": "constructor"
    },
    {
      "inputs": [
        {
          "internalType": "address",
          "name": "",
          "type": "address"
        },
        {
          "internalType": "uint256",
          "name": "",
          "type": "uint256"
        }
      ],
      "name": "_data",
      "outputs": [
        {
          "internalType": "address",
          "name": "_address",
          "type": "address"
        },
        {
          "internalType": "int256",
          "name": "_id",
          "type": "int256"
        },
        {
          "internalType": "string",
          "name": "_name",
          "type": "string"
        },
        {
          "internalType": "string",
          "name": "_campaignTitle",
          "type": "string"
        },
        {
          "internalType": "string",
          "name": "_label",
          "type": "string"
        },
        {
          "internalType": "string",
          "name": "_story",
          "type": "string"
        },
        {
          "internalType": "int256",
          "name": "_goal",
          "type": "int256"
        },
        {
          "internalType": "string",
          "name": "_endDate",
          "type": "string"
        },
        {
          "internalType": "string",
          "name": "_imageUrl",
          "type": "string"
        },
        {
          "internalType": "bool",
          "name": "_active",
          "type": "bool"
        }
      ],
      "stateMutability": "view",
      "type": "function",
      "constant": true
    },
    {
      "inputs": [
        {
          "internalType": "int256",
          "name": "",
          "type": "int256"
        },
        {
          "internalType": "uint256",
          "name": "",
          "type": "uint256"
        }
      ],
      "name": "_funding",
      "outputs": [
        {
          "internalType": "int256",
          "name": "_id",
          "type": "int256"
        },
        {
          "internalType": "address",
          "name": "_address",
          "type": "address"
        },
        {
          "internalType": "uint256",
          "name": "_fund",
          "type": "uint256"
        },
        {
          "internalType": "string",
          "name": "_date",
          "type": "string"
        }
      ],
      "stateMutability": "view",
      "type": "function",
      "constant": true
    },
    {
      "inputs": [
        {
          "internalType": "uint256",
          "name": "",
          "type": "uint256"
        }
      ],
      "name": "_list",
      "outputs": [
        {
          "internalType": "address",
          "name": "",
          "type": "address"
        }
      ],
      "stateMutability": "view",
      "type": "function",
      "constant": true
    },
    {
      "inputs": [],
      "name": "_manager",
      "outputs": [
        {
          "internalType": "address",
          "name": "",
          "type": "address"
        }
      ],
      "stateMutability": "view",
      "type": "function",
      "constant": true
    },
    {
      "inputs": [],
      "name": "getAddressList",
      "outputs": [
        {
          "internalType": "address[]",
          "name": "",
          "type": "address[]"
        }
      ],
      "stateMutability": "view",
      "type": "function",
      "constant": true
    },
    {
      "inputs": [
        {
          "internalType": "int256",
          "name": "id",
          "type": "int256"
        },
        {
          "internalType": "string",
          "name": "name",
          "type": "string"
        },
        {
          "internalType": "string",
          "name": "campaignTitle",
          "type": "string"
        },
        {
          "internalType": "string",
          "name": "label",
          "type": "string"
        },
        {
          "internalType": "string",
          "name": "story",
          "type": "string"
        },
        {
          "internalType": "int256",
          "name": "goal",
          "type": "int256"
        },
        {
          "internalType": "string",
          "name": "endDate",
          "type": "string"
        },
        {
          "internalType": "string",
          "name": "imageUrl",
          "type": "string"
        }
      ],
      "name": "createCampaign",
      "outputs": [],
      "stateMutability": "nonpayable",
      "type": "function"
    },
    {
      "inputs": [
        {
          "internalType": "address",
          "name": "_address",
          "type": "address"
        }
      ],
      "name": "getCampaignList",
      "outputs": [
        {
          "components": [
            {
              "internalType": "address",
              "name": "_address",
              "type": "address"
            },
            {
              "internalType": "int256",
              "name": "_id",
              "type": "int256"
            },
            {
              "internalType": "string",
              "name": "_name",
              "type": "string"
            },
            {
              "internalType": "string",
              "name": "_campaignTitle",
              "type": "string"
            },
            {
              "internalType": "string",
              "name": "_label",
              "type": "string"
            },
            {
              "internalType": "string",
              "name": "_story",
              "type": "string"
            },
            {
              "internalType": "int256",
              "name": "_goal",
              "type": "int256"
            },
            {
              "internalType": "string",
              "name": "_endDate",
              "type": "string"
            },
            {
              "internalType": "string",
              "name": "_imageUrl",
              "type": "string"
            },
            {
              "internalType": "bool",
              "name": "_active",
              "type": "bool"
            }
          ],
          "internalType": "struct CrowdFunding.Campaign[]",
          "name": "",
          "type": "tuple[]"
        }
      ],
      "stateMutability": "view",
      "type": "function",
      "constant": true
    },
    {
      "inputs": [
        {
          "internalType": "int256",
          "name": "fid",
          "type": "int256"
        },
        {
          "internalType": "uint256",
          "name": "ammount",
          "type": "uint256"
        },
        {
          "internalType": "int256",
          "name": "cid",
          "type": "int256"
        },
        {
          "internalType": "address",
          "name": "caddress",
          "type": "address"
        },
        {
          "internalType": "string",
          "name": "date",
          "type": "string"
        }
      ],
      "name": "donate",
      "outputs": [],
      "stateMutability": "payable",
      "type": "function",
      "payable": true
    },
    {
      "inputs": [
        {
          "internalType": "int256",
          "name": "cid",
          "type": "int256"
        }
      ],
      "name": "getFunding",
      "outputs": [
        {
          "components": [
            {
              "internalType": "int256",
              "name": "_id",
              "type": "int256"
            },
            {
              "internalType": "address",
              "name": "_address",
              "type": "address"
            },
            {
              "internalType": "uint256",
              "name": "_fund",
              "type": "uint256"
            },
            {
              "internalType": "string",
              "name": "_date",
              "type": "string"
            }
          ],
          "internalType": "struct CrowdFunding.Fund[]",
          "name": "",
          "type": "tuple[]"
        }
      ],
      "stateMutability": "view",
      "type": "function",
      "constant": true
    },
    {
      "inputs": [
        {
          "internalType": "int256",
          "name": "cid",
          "type": "int256"
        }
      ],
      "name": "getBalance",
      "outputs": [
        {
          "internalType": "uint256",
          "name": "",
          "type": "uint256"
        },
        {
          "internalType": "uint256",
          "name": "",
          "type": "uint256"
        }
      ],
      "stateMutability": "view",
      "type": "function",
      "constant": true
    }
  ],
  "bytecode": "0x608060405234801561001057600080fd5b50336000806101000a81548173ffffffffffffffffffffffffffffffffffffffff021916908373ffffffffffffffffffffffffffffffffffffffff16021790555061245d806100606000396000f3fe6080604052600436106100905760003560e01c80637981a96f116100595780637981a96f146101b157806381119130146101da578063da0a75c814610205578063ea53994314610243578063f0329f6b1461028057610090565b80621ef7431461009557806301714168146100b15780630353176f146100ee5780631327f5ab146101345780632a4195e814610174575b600080fd5b6100af60048036038101906100aa9190611645565b6102ab565b005b3480156100bd57600080fd5b506100d860048036038101906100d391906116dc565b61047b565b6040516100e59190611980565b60405180910390f35b3480156100fa57600080fd5b50610115600480360381019061011091906119a2565b61090b565b60405161012b9a99989796959493929190611a59565b60405180910390f35b34801561014057600080fd5b5061015b60048036038101906101569190611b1f565b610cd9565b60405161016b9493929190611b6e565b60405180910390f35b34801561018057600080fd5b5061019b60048036038101906101969190611bba565b610dce565b6040516101a89190611d1b565b60405180910390f35b3480156101bd57600080fd5b506101d860048036038101906101d39190611d3d565b610f3c565b005b3480156101e657600080fd5b506101ef6111f8565b6040516101fc9190611f4a565b60405180910390f35b34801561021157600080fd5b5061022c60048036038101906102279190611bba565b611286565b60405161023a929190611f6c565b60405180910390f35b34801561024f57600080fd5b5061026a60048036038101906102659190611f95565b611315565b6040516102779190611fc2565b60405180910390f35b34801561028c57600080fd5b50610295611354565b6040516102a29190611fc2565b60405180910390f35b3373ffffffffffffffffffffffffffffffffffffffff168273ffffffffffffffffffffffffffffffffffffffff1603610319576040517f08c379a00000000000000000000000000000000000000000000000000000000081526004016103109061204f565b60405180910390fd5b60008290508073ffffffffffffffffffffffffffffffffffffffff166108fc869081150290604051600060405180830381858888f19350505050158015610364573d6000803e3d6000fd5b5061036d611378565b8681600001818152505033816020019073ffffffffffffffffffffffffffffffffffffffff16908173ffffffffffffffffffffffffffffffffffffffff168152505082816060018190525085816040018181525050600360008681526020019081526020016000208190806001815401808255809150506001900390600052602060002090600402016000909190919091506000820151816000015560208201518160010160006101000a81548173ffffffffffffffffffffffffffffffffffffffff021916908373ffffffffffffffffffffffffffffffffffffffff16021790555060408201518160020155606082015181600301908161046f919061227b565b50505050505050505050565b6060600260008373ffffffffffffffffffffffffffffffffffffffff1673ffffffffffffffffffffffffffffffffffffffff168152602001908152602001600020805480602002602001604051908101604052809291908181526020016000905b8282101561090057838290600052602060002090600a0201604051806101400160405290816000820160009054906101000a900473ffffffffffffffffffffffffffffffffffffffff1673ffffffffffffffffffffffffffffffffffffffff1673ffffffffffffffffffffffffffffffffffffffff168152602001600182015481526020016002820180546105709061209e565b80601f016020809104026020016040519081016040528092919081815260200182805461059c9061209e565b80156105e95780601f106105be576101008083540402835291602001916105e9565b820191906000526020600020905b8154815290600101906020018083116105cc57829003601f168201915b505050505081526020016003820180546106029061209e565b80601f016020809104026020016040519081016040528092919081815260200182805461062e9061209e565b801561067b5780601f106106505761010080835404028352916020019161067b565b820191906000526020600020905b81548152906001019060200180831161065e57829003601f168201915b505050505081526020016004820180546106949061209e565b80601f01602080910402602001604051908101604052809291908181526020018280546106c09061209e565b801561070d5780601f106106e25761010080835404028352916020019161070d565b820191906000526020600020905b8154815290600101906020018083116106f057829003601f168201915b505050505081526020016005820180546107269061209e565b80601f01602080910402602001604051908101604052809291908181526020018280546107529061209e565b801561079f5780601f106107745761010080835404028352916020019161079f565b820191906000526020600020905b81548152906001019060200180831161078257829003601f168201915b50505050508152602001600682015481526020016007820180546107c29061209e565b80601f01602080910402602001604051908101604052809291908181526020018280546107ee9061209e565b801561083b5780601f106108105761010080835404028352916020019161083b565b820191906000526020600020905b81548152906001019060200180831161081e57829003601f168201915b505050505081526020016008820180546108549061209e565b80601f01602080910402602001604051908101604052809291908181526020018280546108809061209e565b80156108cd5780601f106108a2576101008083540402835291602001916108cd565b820191906000526020600020905b8154815290600101906020018083116108b057829003601f168201915b505050505081526020016009820160009054906101000a900460ff161515151581525050815260200190600101906104dc565b505050509050919050565b6002602052816000526040600020818154811061092757600080fd5b90600052602060002090600a0201600091509150508060000160009054906101000a900473ffffffffffffffffffffffffffffffffffffffff16908060010154908060020180546109779061209e565b80601f01602080910402602001604051908101604052809291908181526020018280546109a39061209e565b80156109f05780601f106109c5576101008083540402835291602001916109f0565b820191906000526020600020905b8154815290600101906020018083116109d357829003601f168201915b505050505090806003018054610a059061209e565b80601f0160208091040260200160405190810160405280929190818152602001828054610a319061209e565b8015610a7e5780601f10610a5357610100808354040283529160200191610a7e565b820191906000526020600020905b815481529060010190602001808311610a6157829003601f168201915b505050505090806004018054610a939061209e565b80601f0160208091040260200160405190810160405280929190818152602001828054610abf9061209e565b8015610b0c5780601f10610ae157610100808354040283529160200191610b0c565b820191906000526020600020905b815481529060010190602001808311610aef57829003601f168201915b505050505090806005018054610b219061209e565b80601f0160208091040260200160405190810160405280929190818152602001828054610b4d9061209e565b8015610b9a5780601f10610b6f57610100808354040283529160200191610b9a565b820191906000526020600020905b815481529060010190602001808311610b7d57829003601f168201915b505050505090806006015490806007018054610bb59061209e565b80601f0160208091040260200160405190810160405280929190818152602001828054610be19061209e565b8015610c2e5780601f10610c0357610100808354040283529160200191610c2e565b820191906000526020600020905b815481529060010190602001808311610c1157829003601f168201915b505050505090806008018054610c439061209e565b80601f0160208091040260200160405190810160405280929190818152602001828054610c6f9061209e565b8015610cbc5780601f10610c9157610100808354040283529160200191610cbc565b820191906000526020600020905b815481529060010190602001808311610c9f57829003601f168201915b5050505050908060090160009054906101000a900460ff1690508a565b60036020528160005260406000208181548110610cf557600080fd5b9060005260206000209060040201600091509150508060000154908060010160009054906101000a900473ffffffffffffffffffffffffffffffffffffffff1690806002015490806003018054610d4b9061209e565b80601f0160208091040260200160405190810160405280929190818152602001828054610d779061209e565b8015610dc45780601f10610d9957610100808354040283529160200191610dc4565b820191906000526020600020905b815481529060010190602001808311610da757829003601f168201915b5050505050905084565b606060036000838152602001908152602001600020805480602002602001604051908101604052809291908181526020016000905b82821015610f315783829060005260206000209060040201604051806080016040529081600082015481526020016001820160009054906101000a900473ffffffffffffffffffffffffffffffffffffffff1673ffffffffffffffffffffffffffffffffffffffff1673ffffffffffffffffffffffffffffffffffffffff16815260200160028201548152602001600382018054610ea09061209e565b80601f0160208091040260200160405190810160405280929190818152602001828054610ecc9061209e565b8015610f195780601f10610eee57610100808354040283529160200191610f19565b820191906000526020600020905b815481529060010190602001808311610efc57829003601f168201915b50505050508152505081526020019060010190610e03565b505050509050919050565b610f446113b6565b33816000019073ffffffffffffffffffffffffffffffffffffffff16908173ffffffffffffffffffffffffffffffffffffffff168152505088816020018181525050878160400181905250868160600181905250858160800181905250848160a00181905250838160c0018181525050828160e0018190525081816101000181905250600060026000836000015173ffffffffffffffffffffffffffffffffffffffff1673ffffffffffffffffffffffffffffffffffffffff168152602001908152602001600020805490500361107d57600181600001519080600181540180825580915050600190039060005260206000200160009091909190916101000a81548173ffffffffffffffffffffffffffffffffffffffff021916908373ffffffffffffffffffffffffffffffffffffffff1602179055505b60026000826000015173ffffffffffffffffffffffffffffffffffffffff1673ffffffffffffffffffffffffffffffffffffffff1681526020019081526020016000208190806001815401808255809150506001900390600052602060002090600a020160009091909190915060008201518160000160006101000a81548173ffffffffffffffffffffffffffffffffffffffff021916908373ffffffffffffffffffffffffffffffffffffffff160217905550602082015181600101556040820151816002019081611150919061227b565b506060820151816003019081611166919061227b565b50608082015181600401908161117c919061227b565b5060a0820151816005019081611192919061227b565b5060c0820151816006015560e08201518160070190816111b2919061227b565b506101008201518160080190816111c9919061227b565b506101208201518160090160006101000a81548160ff0219169083151502179055505050505050505050505050565b6060600180548060200260200160405190810160405280929190818152602001828054801561127c57602002820191906000526020600020905b8160009054906101000a900473ffffffffffffffffffffffffffffffffffffffff1673ffffffffffffffffffffffffffffffffffffffff1681526020019060010190808311611232575b5050505050905090565b6000806000806003600086815260200190815260200160002080549050905060005b81811015611307576003600087815260200190815260200160002081815481106112d5576112d461234d565b5b906000526020600020906004020160020154836112f291906123ab565b925080806112ff906123df565b9150506112a8565b508181935093505050915091565b6001818154811061132557600080fd5b906000526020600020016000915054906101000a900473ffffffffffffffffffffffffffffffffffffffff1681565b60008054906101000a900473ffffffffffffffffffffffffffffffffffffffff1681565b604051806080016040528060008152602001600073ffffffffffffffffffffffffffffffffffffffff16815260200160008152602001606081525090565b604051806101400160405280600073ffffffffffffffffffffffffffffffffffffffff16815260200160008152602001606081526020016060815260200160608152602001606081526020016000815260200160608152602001606081526020016000151581525090565b6000604051905090565b600080fd5b600080fd5b6000819050919050565b61144881611435565b811461145357600080fd5b50565b6000813590506114658161143f565b92915050565b6000819050919050565b61147e8161146b565b811461148957600080fd5b50565b60008135905061149b81611475565b92915050565b600073ffffffffffffffffffffffffffffffffffffffff82169050919050565b60006114cc826114a1565b9050919050565b6114dc816114c1565b81146114e757600080fd5b50565b6000813590506114f9816114d3565b92915050565b600080fd5b600080fd5b6000601f19601f8301169050919050565b7f4e487b7100000000000000000000000000000000000000000000000000000000600052604160045260246000fd5b61155282611509565b810181811067ffffffffffffffff821117156115715761157061151a565b5b80604052505050565b6000611584611421565b90506115908282611549565b919050565b600067ffffffffffffffff8211156115b0576115af61151a565b5b6115b982611509565b9050602081019050919050565b82818337600083830152505050565b60006115e86115e384611595565b61157a565b90508281526020810184848401111561160457611603611504565b5b61160f8482856115c6565b509392505050565b600082601f83011261162c5761162b6114ff565b5b813561163c8482602086016115d5565b91505092915050565b600080600080600060a086880312156116615761166061142b565b5b600061166f88828901611456565b95505060206116808882890161148c565b945050604061169188828901611456565b93505060606116a2888289016114ea565b925050608086013567ffffffffffffffff8111156116c3576116c2611430565b5b6116cf88828901611617565b9150509295509295909350565b6000602082840312156116f2576116f161142b565b5b6000611700848285016114ea565b91505092915050565b600081519050919050565b600082825260208201905092915050565b6000819050602082019050919050565b61173e816114c1565b82525050565b61174d81611435565b82525050565b600081519050919050565b600082825260208201905092915050565b60005b8381101561178d578082015181840152602081019050611772565b60008484015250505050565b60006117a482611753565b6117ae818561175e565b93506117be81856020860161176f565b6117c781611509565b840191505092915050565b60008115159050919050565b6117e7816117d2565b82525050565b6000610140830160008301516118066000860182611735565b5060208301516118196020860182611744565b50604083015184820360408601526118318282611799565b9150506060830151848203606086015261184b8282611799565b915050608083015184820360808601526118658282611799565b91505060a083015184820360a086015261187f8282611799565b91505060c083015161189460c0860182611744565b5060e083015184820360e08601526118ac8282611799565b9150506101008301518482036101008601526118c88282611799565b9150506101208301516118df6101208601826117de565b508091505092915050565b60006118f683836117ed565b905092915050565b6000602082019050919050565b600061191682611709565b6119208185611714565b93508360208202850161193285611725565b8060005b8581101561196e578484038952815161194f85826118ea565b945061195a836118fe565b925060208a01995050600181019050611936565b50829750879550505050505092915050565b6000602082019050818103600083015261199a818461190b565b905092915050565b600080604083850312156119b9576119b861142b565b5b60006119c7858286016114ea565b92505060206119d88582860161148c565b9150509250929050565b6119eb816114c1565b82525050565b6119fa81611435565b82525050565b600082825260208201905092915050565b6000611a1c82611753565b611a268185611a00565b9350611a3681856020860161176f565b611a3f81611509565b840191505092915050565b611a53816117d2565b82525050565b600061014082019050611a6f600083018d6119e2565b611a7c602083018c6119f1565b8181036040830152611a8e818b611a11565b90508181036060830152611aa2818a611a11565b90508181036080830152611ab68189611a11565b905081810360a0830152611aca8188611a11565b9050611ad960c08301876119f1565b81810360e0830152611aeb8186611a11565b9050818103610100830152611b008185611a11565b9050611b10610120830184611a4a565b9b9a5050505050505050505050565b60008060408385031215611b3657611b3561142b565b5b6000611b4485828601611456565b9250506020611b558582860161148c565b9150509250929050565b611b688161146b565b82525050565b6000608082019050611b8360008301876119f1565b611b9060208301866119e2565b611b9d6040830185611b5f565b8181036060830152611baf8184611a11565b905095945050505050565b600060208284031215611bd057611bcf61142b565b5b6000611bde84828501611456565b91505092915050565b600081519050919050565b600082825260208201905092915050565b6000819050602082019050919050565b611c1c8161146b565b82525050565b6000608083016000830151611c3a6000860182611744565b506020830151611c4d6020860182611735565b506040830151611c606040860182611c13565b5060608301518482036060860152611c788282611799565b9150508091505092915050565b6000611c918383611c22565b905092915050565b6000602082019050919050565b6000611cb182611be7565b611cbb8185611bf2565b935083602082028501611ccd85611c03565b8060005b85811015611d095784840389528151611cea8582611c85565b9450611cf583611c99565b925060208a01995050600181019050611cd1565b50829750879550505050505092915050565b60006020820190508181036000830152611d358184611ca6565b905092915050565b600080600080600080600080610100898b031215611d5e57611d5d61142b565b5b6000611d6c8b828c01611456565b985050602089013567ffffffffffffffff811115611d8d57611d8c611430565b5b611d998b828c01611617565b975050604089013567ffffffffffffffff811115611dba57611db9611430565b5b611dc68b828c01611617565b965050606089013567ffffffffffffffff811115611de757611de6611430565b5b611df38b828c01611617565b955050608089013567ffffffffffffffff811115611e1457611e13611430565b5b611e208b828c01611617565b94505060a0611e318b828c01611456565b93505060c089013567ffffffffffffffff811115611e5257611e51611430565b5b611e5e8b828c01611617565b92505060e089013567ffffffffffffffff811115611e7f57611e7e611430565b5b611e8b8b828c01611617565b9150509295985092959890939650565b600081519050919050565b600082825260208201905092915050565b6000819050602082019050919050565b6000611ed38383611735565b60208301905092915050565b6000602082019050919050565b6000611ef782611e9b565b611f018185611ea6565b9350611f0c83611eb7565b8060005b83811015611f3d578151611f248882611ec7565b9750611f2f83611edf565b925050600181019050611f10565b5085935050505092915050565b60006020820190508181036000830152611f648184611eec565b905092915050565b6000604082019050611f816000830185611b5f565b611f8e6020830184611b5f565b9392505050565b600060208284031215611fab57611faa61142b565b5b6000611fb98482850161148c565b91505092915050565b6000602082019050611fd760008301846119e2565b92915050565b7f63616d706169676e206f776e6572206e6f7420616c6c6f77656420746f20646f60008201527f6e61746520686973206f776e2063616d706169676e2e00000000000000000000602082015250565b6000612039603683611a00565b915061204482611fdd565b604082019050919050565b600060208201905081810360008301526120688161202c565b9050919050565b7f4e487b7100000000000000000000000000000000000000000000000000000000600052602260045260246000fd5b600060028204905060018216806120b657607f821691505b6020821081036120c9576120c861206f565b5b50919050565b60008190508160005260206000209050919050565b60006020601f8301049050919050565b600082821b905092915050565b6000600883026121317fffffffffffffffffffffffffffffffffffffffffffffffffffffffffffffffff826120f4565b61213b86836120f4565b95508019841693508086168417925050509392505050565b6000819050919050565b600061217861217361216e8461146b565b612153565b61146b565b9050919050565b6000819050919050565b6121928361215d565b6121a661219e8261217f565b848454612101565b825550505050565b600090565b6121bb6121ae565b6121c6818484612189565b505050565b5b818110156121ea576121df6000826121b3565b6001810190506121cc565b5050565b601f82111561222f57612200816120cf565b612209846120e4565b81016020851015612218578190505b61222c612224856120e4565b8301826121cb565b50505b505050565b600082821c905092915050565b600061225260001984600802612234565b1980831691505092915050565b600061226b8383612241565b9150826002028217905092915050565b61228482611753565b67ffffffffffffffff81111561229d5761229c61151a565b5b6122a7825461209e565b6122b28282856121ee565b600060209050601f8311600181146122e557600084156122d3578287015190505b6122dd858261225f565b865550612345565b601f1984166122f3866120cf565b60005b8281101561231b578489015182556001820191506020850194506020810190506122f6565b868310156123385784890151612334601f891682612241565b8355505b6001600288020188555050505b505050505050565b7f4e487b7100000000000000000000000000000000000000000000000000000000600052603260045260246000fd5b7f4e487b7100000000000000000000000000000000000000000000000000000000600052601160045260246000fd5b60006123b68261146b565b91506123c18361146b565b92508282019050808211156123d9576123d861237c565b5b92915050565b60006123ea8261146b565b91507fffffffffffffffffffffffffffffffffffffffffffffffffffffffffffffffff820361241c5761241b61237c565b5b60018201905091905056fea26469706673582212206469a5355af99f4b28e8e902cb0a9bedf614c3b1adc50c39733d2353a9c64bbd64736f6c63430008110033",
  "immutableReferences": {},
  "source": "// SPDX-License-Identifier: MIT\r\npragma solidity >=0.4.22 < 0.9.0;\r\n\r\ncontract CrowdFunding{\r\n    address public _manager;\r\n\r\n    struct Campaign{\r\n        address _address;\r\n        int _id;\r\n        string _name;\r\n        string _campaignTitle;\r\n        string _label;\r\n        string _story;\r\n        int _goal;\r\n        string _endDate;\r\n        string _imageUrl;\r\n        bool _active;\r\n    }    \r\n\r\n    struct Fund{\r\n        int _id;\r\n        address _address;\r\n        uint _fund;\r\n        string _date;\r\n    }\r\n\r\n    address[] public _list;\r\n    mapping(address=>Campaign[]) public _data;\r\n    mapping(int=>Fund[]) public _funding; \r\n\r\n\r\n    constructor(){\r\n        _manager = msg.sender;\r\n    }\r\n\r\n    function getAddressList() public view returns(address[] memory){\r\n        return _list;\r\n    }\r\n\r\n    function createCampaign(int id,\r\n                string memory name,\r\n                string memory campaignTitle,\r\n                string memory label,\r\n                string memory story,\r\n                int goal,\r\n                string memory endDate,\r\n                string memory imageUrl) public{\r\n        \r\n        \r\n        Campaign memory c;\r\n        c._address = msg.sender;\r\n        c._id = id;\r\n        c._name = name;\r\n        c._campaignTitle = campaignTitle;\r\n        c._label = label;\r\n        c._story = story;\r\n        c._goal = goal;\r\n        c._endDate = endDate;\r\n        c._imageUrl = imageUrl;\r\n        \r\n        if(_data[c._address].length == 0)\r\n        {\r\n            _list.push(c._address);\r\n        }\r\n        _data[c._address].push(c); \r\n\r\n    }\r\n\r\n    function getCampaignList(address _address) view public returns(Campaign[] memory){\r\n        return _data[address(_address)];\r\n    }  \r\n\r\n    function donate(int fid,uint ammount,int cid,address caddress,string memory date) payable public{\r\n        if(caddress == address(msg.sender))\r\n            revert(\"campaign owner not allowed to donate his own campaign.\");\r\n        address payable d = payable(caddress); \r\n        d.transfer(ammount);\r\n        Fund memory f;\r\n        f._id = fid;\r\n        f._address = msg.sender;\r\n        f._date = date;\r\n        f._fund = ammount;\r\n        _funding[cid].push(f);   \r\n    }\r\n\r\n    function getFunding(int cid) view public returns(Fund[] memory){\r\n        return _funding[cid];\r\n    }\r\n\r\n    function getBalance(int cid) view public returns(uint,uint){\r\n        uint sum = 0;\r\n        uint len = _funding[cid].length;\r\n        for(uint i=0;i<len;i++){\r\n            sum += _funding[cid][i]._fund;\r\n        }\r\n        return(sum,len);\r\n    } \r\n}\r\n\r\n\r\n\r\n",
  "sourcePath": "E:\\Ethereum\\crowd-funding\\contracts\\CrowdFunding.sol",
  "compiler": {
    "name": "solc",
    "version": "0.8.17+commit.8df45f5f.Emscripten.clang"
  },
  "schemaVersion": "3.4.11",
  "updatedAt": "2023-02-12T07:25:28.534Z",
  "networkType": "ethereum",
  "devdoc": {
    "kind": "dev",
    "methods": {},
    "version": 1
  },
  "userdoc": {
    "kind": "user",
    "methods": {},
    "version": 1
  }
}